{
  "contractName": "MultiWarehouseInventory",
  "abi": [
    {
      "inputs": [],
      "stateMutability": "nonpayable",
      "type": "constructor"
    },
    {
      "anonymous": false,
      "inputs": [
        {
          "indexed": true,
          "internalType": "uint256",
          "name": "inventoryId",
          "type": "uint256"
        },
        {
          "indexed": false,
          "internalType": "string",
          "name": "name",
          "type": "string"
        }
      ],
      "name": "InventoryCreated",
      "type": "event"
    },
    {
      "anonymous": false,
      "inputs": [
        {
          "indexed": true,
          "internalType": "uint256",
          "name": "inventoryId",
          "type": "uint256"
        }
      ],
      "name": "InventoryDeleted",
      "type": "event"
    },
    {
      "anonymous": false,
      "inputs": [
        {
          "indexed": true,
          "internalType": "address",
          "name": "previousOwner",
          "type": "address"
        },
        {
          "indexed": true,
          "internalType": "address",
          "name": "newOwner",
          "type": "address"
        }
      ],
      "name": "OwnershipTransferred",
      "type": "event"
    },
    {
      "anonymous": false,
      "inputs": [
        {
          "indexed": true,
          "internalType": "uint256",
          "name": "inventoryId",
          "type": "uint256"
        },
        {
          "indexed": true,
          "internalType": "uint256",
          "name": "productId",
          "type": "uint256"
        }
      ],
      "name": "ProductDeleted",
      "type": "event"
    },
    {
      "anonymous": false,
      "inputs": [
        {
          "indexed": true,
          "internalType": "uint256",
          "name": "inventoryId",
          "type": "uint256"
        },
        {
          "indexed": true,
          "internalType": "uint256",
          "name": "productId",
          "type": "uint256"
        },
        {
          "indexed": false,
          "internalType": "string",
          "name": "action",
          "type": "string"
        },
        {
          "indexed": false,
          "internalType": "uint256",
          "name": "change",
          "type": "uint256"
        },
        {
          "indexed": false,
          "internalType": "uint256",
          "name": "newQuantity",
          "type": "uint256"
        }
      ],
      "name": "ProductUpdated",
      "type": "event"
    },
    {
      "anonymous": false,
      "inputs": [
        {
          "indexed": true,
          "internalType": "address",
          "name": "staker",
          "type": "address"
        },
        {
          "indexed": false,
          "internalType": "uint256",
          "name": "amount",
          "type": "uint256"
        }
      ],
      "name": "StakeWithdrawn",
      "type": "event"
    },
    {
      "inputs": [
        {
          "internalType": "uint256",
          "name": "",
          "type": "uint256"
        }
      ],
      "name": "inventories",
      "outputs": [
        {
          "internalType": "uint256",
          "name": "id",
          "type": "uint256"
        },
        {
          "internalType": "string",
          "name": "name",
          "type": "string"
        },
        {
          "internalType": "uint256",
          "name": "productCount",
          "type": "uint256"
        }
      ],
      "stateMutability": "view",
      "type": "function",
      "constant": true
    },
    {
      "inputs": [],
      "name": "inventoryCount",
      "outputs": [
        {
          "internalType": "uint256",
          "name": "",
          "type": "uint256"
        }
      ],
      "stateMutability": "view",
      "type": "function",
      "constant": true
    },
    {
      "inputs": [],
      "name": "maxInventoryCapacity",
      "outputs": [
        {
          "internalType": "uint256",
          "name": "",
          "type": "uint256"
        }
      ],
      "stateMutability": "view",
      "type": "function",
      "constant": true
    },
    {
      "inputs": [],
      "name": "owner",
      "outputs": [
        {
          "internalType": "address",
          "name": "",
          "type": "address"
        }
      ],
      "stateMutability": "view",
      "type": "function",
      "constant": true
    },
    {
      "inputs": [
        {
          "internalType": "address",
          "name": "",
          "type": "address"
        }
      ],
      "name": "stakes",
      "outputs": [
        {
          "internalType": "uint256",
          "name": "",
          "type": "uint256"
        }
      ],
      "stateMutability": "view",
      "type": "function",
      "constant": true
    },
    {
      "inputs": [],
      "name": "totalStaked",
      "outputs": [
        {
          "internalType": "uint256",
          "name": "",
          "type": "uint256"
        }
      ],
      "stateMutability": "view",
      "type": "function",
      "constant": true
    },
    {
      "inputs": [],
      "name": "stakeTokens",
      "outputs": [],
      "stateMutability": "payable",
      "type": "function",
      "payable": true
    },
    {
      "inputs": [],
      "name": "withdrawStake",
      "outputs": [],
      "stateMutability": "nonpayable",
      "type": "function"
    },
    {
      "inputs": [
        {
          "internalType": "address",
          "name": "newOwner",
          "type": "address"
        }
      ],
      "name": "transferOwnership",
      "outputs": [],
      "stateMutability": "nonpayable",
      "type": "function"
    },
    {
      "inputs": [
        {
          "internalType": "string",
          "name": "name",
          "type": "string"
        }
      ],
      "name": "createInventory",
      "outputs": [],
      "stateMutability": "nonpayable",
      "type": "function"
    },
    {
      "inputs": [
        {
          "internalType": "uint256",
          "name": "inventoryId",
          "type": "uint256"
        }
      ],
      "name": "deleteInventory",
      "outputs": [],
      "stateMutability": "nonpayable",
      "type": "function"
    },
    {
      "inputs": [
        {
          "internalType": "uint256",
          "name": "inventoryId",
          "type": "uint256"
        },
        {
          "internalType": "uint256",
          "name": "productId",
          "type": "uint256"
        },
        {
          "internalType": "string",
          "name": "productName",
          "type": "string"
        },
        {
          "internalType": "uint256",
          "name": "quantity",
          "type": "uint256"
        },
        {
          "internalType": "uint256",
          "name": "expiryDate",
          "type": "uint256"
        },
        {
          "internalType": "string",
          "name": "manufacturer",
          "type": "string"
        }
      ],
      "name": "addProduct",
      "outputs": [],
      "stateMutability": "nonpayable",
      "type": "function"
    },
    {
      "inputs": [
        {
          "internalType": "uint256",
          "name": "inventoryId",
          "type": "uint256"
        },
        {
          "internalType": "uint256",
          "name": "productId",
          "type": "uint256"
        },
        {
          "internalType": "uint256",
          "name": "quantityChange",
          "type": "uint256"
        },
        {
          "internalType": "string",
          "name": "action",
          "type": "string"
        }
      ],
      "name": "updateProduct",
      "outputs": [],
      "stateMutability": "nonpayable",
      "type": "function"
    },
    {
      "inputs": [
        {
          "internalType": "uint256",
          "name": "inventoryId",
          "type": "uint256"
        },
        {
          "internalType": "uint256",
          "name": "productId",
          "type": "uint256"
        }
      ],
      "name": "deleteProduct",
      "outputs": [],
      "stateMutability": "nonpayable",
      "type": "function"
    },
    {
      "inputs": [
        {
          "internalType": "uint256",
          "name": "inventoryId",
          "type": "uint256"
        },
        {
          "internalType": "uint256",
          "name": "productId",
          "type": "uint256"
        }
      ],
      "name": "getProduct",
      "outputs": [
        {
          "internalType": "uint256",
          "name": "",
          "type": "uint256"
        },
        {
          "internalType": "string",
          "name": "",
          "type": "string"
        },
        {
          "internalType": "uint256",
          "name": "",
          "type": "uint256"
        },
        {
          "internalType": "uint256",
          "name": "",
          "type": "uint256"
        },
        {
          "internalType": "string",
          "name": "",
          "type": "string"
        }
      ],
      "stateMutability": "view",
      "type": "function",
      "constant": true
    }
  ],
  "bytecode": "0x60806040526103e860035534801561001657600080fd5b50600080546001600160a01b03191633179055611600806100386000396000f3fe6080604052600436106100e85760003560e01c806375863c5d1161008a578063bed9d86111610059578063bed9d8611461027a578063cd78ba011461028f578063ce46643b146102be578063f2fde38b146102c657600080fd5b806375863c5d146101ec578063817b1cd21461020c5780638da5cb5b14610222578063a1c48cc41461025a57600080fd5b806319afa4a6116100c657806319afa4a61461016557806324f346ab1461018557806336566c2e146101b65780635b98c83d146101d657600080fd5b80630ea9bf92146100ed5780630ef04f2f1461010f57806316934fc414610138575b600080fd5b3480156100f957600080fd5b5061010d610108366004610fd6565b6102e6565b005b34801561011b57600080fd5b5061012560035481565b6040519081526020015b60405180910390f35b34801561014457600080fd5b50610125610153366004610fef565b60016020526000908152604090205481565b34801561017157600080fd5b5061010d6101803660046110c2565b6103b2565b34801561019157600080fd5b506101a56101a036600461111c565b610668565b60405161012f95949392919061118e565b3480156101c257600080fd5b5061010d6101d13660046111d1565b61086d565b3480156101e257600080fd5b5061012560055481565b3480156101f857600080fd5b5061010d61020736600461125a565b610aa9565b34801561021857600080fd5b5061012560025481565b34801561022e57600080fd5b50600054610242906001600160a01b031681565b6040516001600160a01b03909116815260200161012f565b34801561026657600080fd5b5061010d61027536600461111c565b610b51565b34801561028657600080fd5b5061010d610c87565b34801561029b57600080fd5b506102af6102aa366004610fd6565b610d6b565b60405161012f93929190611297565b61010d610e16565b3480156102d257600080fd5b5061010d6102e1366004610fef565b610ea5565b6000546001600160a01b031633146103195760405162461bcd60e51b8152600401610310906112c0565b60405180910390fd5b60008181526004602052604081205490036103465760405162461bcd60e51b815260040161031090611306565b6000818152600460205260408120818155906103656001830182610f80565b506000600391909101819055600580549161037f83611353565b909155505060405181907f921c847f92a6e309c91cac2bf5fae53acb6d4e7b68d413bfedcb373b174179ef90600090a250565b336000908152600160205260409020546103de5760405162461bcd60e51b81526004016103109061136a565b600084815260046020526040812054900361040b5760405162461bcd60e51b815260040161031090611306565b600084815260046020908152604080832086845260020190915281205490036104465760405162461bcd60e51b8152600401610310906113b6565b6040516218591960ea1b6020820152602301604051602081830303815290604052805190602001208160405160200161047f91906113e6565b60405160208183030381529060405280519060200120036104d4576000848152600460209081526040808320868452600290810190925282200180548492906104c9908490611402565b909155506106039050565b6040516572656d6f766560d01b6020820152602601604051602081830303815290604052805190602001208160405160200161051091906113e6565b60405160208183030381529060405280519060200120036105ca5760008481526004602090815260408083208684526002908101909252909120015482111561059b5760405162461bcd60e51b815260206004820152601d60248201527f496e73756666696369656e742070726f64756374207175616e746974790000006044820152606401610310565b6000848152600460209081526040808320868452600290810190925282200180548492906104c990849061141b565b60405162461bcd60e51b815260206004820152600e60248201526d24b73b30b634b21030b1ba34b7b760911b6044820152606401610310565b600084815260046020908152604080832086845260029081019092529182902001549051849186917fec74ca432788912dedffacce4c64d5089273f228dadf9fbb5de48ed5752c95d89161065a918691889161142e565b60405180910390a350505050565b600082815260046020526040812054606090829081908390820361069e5760405162461bcd60e51b815260040161031090611306565b600087815260046020908152604080832089845260020190915281205490036106d95760405162461bcd60e51b8152600401610310906113b6565b60008781526004602090815260408083208984526002018252808320815160a0810190925280548252600181018054929391929184019161071990611453565b80601f016020809104026020016040519081016040528092919081815260200182805461074590611453565b80156107925780601f1061076757610100808354040283529160200191610792565b820191906000526020600020905b81548152906001019060200180831161077557829003601f168201915b5050505050815260200160028201548152602001600382015481526020016004820180546107bf90611453565b80601f01602080910402602001604051908101604052809291908181526020018280546107eb90611453565b80156108385780601f1061080d57610100808354040283529160200191610838565b820191906000526020600020905b81548152906001019060200180831161081b57829003601f168201915b5050509190925250508151602083015160408401516060850151608090950151929d919c509a50929850965090945050505050565b336000908152600160205260409020546108995760405162461bcd60e51b81526004016103109061136a565b8560016003548160046000858152602001908152602001600020600301546108c19190611402565b111561090f5760405162461bcd60e51b815260206004820152601a60248201527f4578636565647320696e76656e746f72792063617061636974790000000000006044820152606401610310565b600088815260046020526040812054900361093c5760405162461bcd60e51b815260040161031090611306565b60008881526004602090815260408083208a84526002019091529020541561099f5760405162461bcd60e51b815260206004820152601660248201527550726f6475637420616c72656164792065786973747360501b6044820152606401610310565b6040805160a0810182528881526020808201898152828401899052606083018890526080830187905260008c8152600483528481208c825260020190925292902081518155915190919060018201906109f890826114de565b50604082015160028201556060820151600382015560808201516004820190610a2190826114de565b5050506000888152600460205260408120600301805491610a418361159e565b90915550506040805160608082526003908201526218591960ea1b608082015260208101879052908101869052879089907fec74ca432788912dedffacce4c64d5089273f228dadf9fbb5de48ed5752c95d89060a00160405180910390a35050505050505050565b6000546001600160a01b03163314610ad35760405162461bcd60e51b8152600401610310906112c0565b60058054906000610ae38361159e565b9091555050600554600081815260046020526040902090815560018101610b0a83826114de565b50600060038201556005546040517f3f00e6975b914a3908454a10728f24f3f68677e352b6f45a79e5d02226b3007690610b459085906115b7565b60405180910390a25050565b33600090815260016020526040902054610b7d5760405162461bcd60e51b81526004016103109061136a565b6000828152600460205260408120549003610baa5760405162461bcd60e51b815260040161031090611306565b60008281526004602090815260408083208484526002019091528120549003610be55760405162461bcd60e51b8152600401610310906113b6565b6000828152600460209081526040808320848452600201909152812081815590610c126001830182610f80565b60028201600090556003820160009055600482016000610c329190610f80565b50506000828152600460205260408120600301805491610c5183611353565b9091555050604051819083907f7eaef52aeda474bc3ac0820e087462835b5d756f3c4c32f65125abf1b186b0ba90600090a35050565b3360009081526001602052604090205480610cdc5760405162461bcd60e51b81526020600482015260156024820152744e6f20746f6b656e7320746f20776974686472617760581b6044820152606401610310565b33600090815260016020526040812081905560028054839290610d0090849061141b565b9091555050604051339082156108fc029083906000818181858888f19350505050158015610d32573d6000803e3d6000fd5b5060405181815233907f8108595eb6bad3acefa9da467d90cc2217686d5c5ac85460f8b7849c840645fc9060200160405180910390a250565b60046020526000908152604090208054600182018054919291610d8d90611453565b80601f0160208091040260200160405190810160405280929190818152602001828054610db990611453565b8015610e065780601f10610ddb57610100808354040283529160200191610e06565b820191906000526020600020905b815481529060010190602001808311610de957829003601f168201915b5050505050908060030154905083565b60003411610e665760405162461bcd60e51b815260206004820152601f60248201527f5374616b65206d757374206265206120706f73697469766520616d6f756e74006044820152606401610310565b3360009081526001602052604081208054349290610e85908490611402565b925050819055503460026000828254610e9e9190611402565b9091555050565b6000546001600160a01b03163314610ecf5760405162461bcd60e51b8152600401610310906112c0565b6001600160a01b038116610f255760405162461bcd60e51b815260206004820181905260248201527f4e6577206f776e65722063616e6e6f74206265207a65726f20616464726573736044820152606401610310565b600080546040516001600160a01b03808516939216917f8be0079c531659141344cd1fd0a4f28419497f9722a3daafe3b4186f6b6457e091a3600080546001600160a01b0319166001600160a01b0392909216919091179055565b508054610f8c90611453565b6000825580601f10610f9c575050565b601f016020900490600052602060002090810190610fba9190610fbd565b50565b5b80821115610fd25760008155600101610fbe565b5090565b600060208284031215610fe857600080fd5b5035919050565b60006020828403121561100157600080fd5b81356001600160a01b038116811461101857600080fd5b9392505050565b634e487b7160e01b600052604160045260246000fd5b600082601f83011261104657600080fd5b813567ffffffffffffffff808211156110615761106161101f565b604051601f8301601f19908116603f011681019082821181831017156110895761108961101f565b816040528381528660208588010111156110a257600080fd5b836020870160208301376000602085830101528094505050505092915050565b600080600080608085870312156110d857600080fd5b843593506020850135925060408501359150606085013567ffffffffffffffff81111561110457600080fd5b61111087828801611035565b91505092959194509250565b6000806040838503121561112f57600080fd5b50508035926020909101359150565b60005b83811015611159578181015183820152602001611141565b50506000910152565b6000815180845261117a81602086016020860161113e565b601f01601f19169290920160200192915050565b85815260a0602082015260006111a760a0830187611162565b85604084015284606084015282810360808401526111c58185611162565b98975050505050505050565b60008060008060008060c087890312156111ea57600080fd5b8635955060208701359450604087013567ffffffffffffffff8082111561121057600080fd5b61121c8a838b01611035565b9550606089013594506080890135935060a089013591508082111561124057600080fd5b5061124d89828a01611035565b9150509295509295509295565b60006020828403121561126c57600080fd5b813567ffffffffffffffff81111561128357600080fd5b61128f84828501611035565b949350505050565b8381526060602082015260006112b06060830185611162565b9050826040830152949350505050565b60208082526026908201527f4f6e6c7920746865206f776e65722063616e20706572666f726d20746869732060408201526530b1ba34b7b760d11b606082015260800190565b60208082526018908201527f496e76656e746f727920646f6573206e6f742065786973740000000000000000604082015260600190565b634e487b7160e01b600052601160045260246000fd5b6000816113625761136261133d565b506000190190565b6020808252602c908201527f596f75206d757374207374616b6520746f6b656e7320746f20706572666f726d60408201526b103a3434b99030b1ba34b7b760a11b606082015260800190565b602080825260169082015275141c9bd91d58dd08191bd95cc81b9bdd08195e1a5cdd60521b604082015260600190565b600082516113f881846020870161113e565b9190910192915050565b808201808211156114155761141561133d565b92915050565b818103818111156114155761141561133d565b6060815260006114416060830186611162565b60208301949094525060400152919050565b600181811c9082168061146757607f821691505b60208210810361148757634e487b7160e01b600052602260045260246000fd5b50919050565b601f8211156114d9576000816000526020600020601f850160051c810160208610156114b65750805b601f850160051c820191505b818110156114d5578281556001016114c2565b5050505b505050565b815167ffffffffffffffff8111156114f8576114f861101f565b61150c816115068454611453565b8461148d565b602080601f83116001811461154157600084156115295750858301515b600019600386901b1c1916600185901b1785556114d5565b600085815260208120601f198616915b8281101561157057888601518255948401946001909101908401611551565b508582101561158e5787850151600019600388901b60f8161c191681555b5050505050600190811b01905550565b6000600182016115b0576115b061133d565b5060010190565b602081526000611018602083018461116256fea2646970667358221220723d7460c06059f6d9da8963aac3608430e9b06f1f9c59053ebbaea14987a8d364736f6c63430008180033",
  "immutableReferences": {},
  "source": "// SPDX-License-Identifier: MIT\r\npragma solidity ^0.8.24;\r\n\r\ncontract MultiWarehouseInventory {\r\n    address public owner;\r\n    mapping(address => uint) public stakes; // Stake mapping for access control\r\n    uint public totalStaked; // Total tokens staked\r\n    uint public maxInventoryCapacity = 1000; // Example inventory capacity limit\r\n\r\n    struct Product {\r\n        uint id;\r\n        string name;\r\n        uint quantity;\r\n        uint expiryDate; // Timestamp for product expiry\r\n        string manufacturer;\r\n    }\r\n\r\n    struct Inventory {\r\n        uint id;\r\n        string name;\r\n        mapping(uint => Product) products; // Products in this inventory\r\n        uint productCount; // Count of products\r\n    }\r\n\r\n    mapping(uint => Inventory) public inventories; // Track inventories by ID\r\n    uint public inventoryCount; // Total inventories\r\n\r\n    event InventoryCreated(uint indexed inventoryId, string name);\r\n    event InventoryDeleted(uint indexed inventoryId);\r\n    event ProductUpdated(\r\n        uint indexed inventoryId,\r\n        uint indexed productId,\r\n        string action,\r\n        uint change,\r\n        uint newQuantity\r\n    );\r\n    event ProductDeleted(uint indexed inventoryId, uint indexed productId);\r\n    event StakeWithdrawn(address indexed staker, uint amount);\r\n    event OwnershipTransferred(address indexed previousOwner, address indexed newOwner);\r\n\r\n    modifier onlyOwner() {\r\n        require(msg.sender == owner, \"Only the owner can perform this action\");\r\n        _;\r\n    }\r\n\r\n    modifier onlyStaker() {\r\n        require(stakes[msg.sender] > 0, \"You must stake tokens to perform this action\");\r\n        _;\r\n    }\r\n\r\n    modifier checkCapacity(uint inventoryId, uint quantity) {\r\n        require(\r\n            inventories[inventoryId].productCount + quantity <= maxInventoryCapacity,\r\n            \"Exceeds inventory capacity\"\r\n        );\r\n        _;\r\n    }\r\n\r\n    constructor() {\r\n        owner = msg.sender;\r\n    }\r\n\r\n    // Stake tokens to gain access\r\n    function stakeTokens() public payable {\r\n        require(msg.value > 0, \"Stake must be a positive amount\");\r\n        stakes[msg.sender] += msg.value;\r\n        totalStaked += msg.value;\r\n    }\r\n\r\n    // Withdraw staked tokens\r\n    function withdrawStake() public {\r\n        uint staked = stakes[msg.sender];\r\n        require(staked > 0, \"No tokens to withdraw\");\r\n        stakes[msg.sender] = 0;\r\n        totalStaked -= staked;\r\n        payable(msg.sender).transfer(staked);\r\n        emit StakeWithdrawn(msg.sender, staked);\r\n    }\r\n\r\n    // Transfer ownership\r\n    function transferOwnership(address newOwner) public onlyOwner {\r\n        require(newOwner != address(0), \"New owner cannot be zero address\");\r\n        emit OwnershipTransferred(owner, newOwner);\r\n        owner = newOwner;\r\n    }\r\n\r\n    // Create a new warehouse (inventory)\r\n    function createInventory(string memory name) public onlyOwner {\r\n        inventoryCount++;\r\n        Inventory storage inventory = inventories[inventoryCount];\r\n        inventory.id = inventoryCount;\r\n        inventory.name = name;\r\n        inventory.productCount = 0;\r\n        emit InventoryCreated(inventoryCount, name);\r\n    }\r\n\r\n    // Delete an inventory\r\n    function deleteInventory(uint inventoryId) public onlyOwner {\r\n        require(inventories[inventoryId].id != 0, \"Inventory does not exist\");\r\n        delete inventories[inventoryId];\r\n        inventoryCount--;\r\n        emit InventoryDeleted(inventoryId);\r\n    }\r\n\r\n    // Add a new product to a specific inventory\r\n    function addProduct(\r\n        uint inventoryId,\r\n        uint productId,\r\n        string memory productName,\r\n        uint quantity,\r\n        uint expiryDate,\r\n        string memory manufacturer\r\n    ) public onlyStaker checkCapacity(inventoryId, 1) {\r\n        require(inventories[inventoryId].id != 0, \"Inventory does not exist\");\r\n        require(inventories[inventoryId].products[productId].id == 0, \"Product already exists\");\r\n\r\n        inventories[inventoryId].products[productId] = Product(\r\n            productId,\r\n            productName,\r\n            quantity,\r\n            expiryDate,\r\n            manufacturer\r\n        );\r\n        inventories[inventoryId].productCount++;\r\n\r\n        emit ProductUpdated(inventoryId, productId, \"add\", quantity, quantity);\r\n    }\r\n\r\n    // Update product quantity (add or remove)\r\n    function updateProduct(\r\n        uint inventoryId,\r\n        uint productId,\r\n        uint quantityChange,\r\n        string memory action\r\n    ) public onlyStaker {\r\n        require(inventories[inventoryId].id != 0, \"Inventory does not exist\");\r\n        require(inventories[inventoryId].products[productId].id != 0, \"Product does not exist\");\r\n\r\n        if (keccak256(abi.encodePacked(action)) == keccak256(abi.encodePacked(\"add\"))) {\r\n            inventories[inventoryId].products[productId].quantity += quantityChange;\r\n        } else if (keccak256(abi.encodePacked(action)) == keccak256(abi.encodePacked(\"remove\"))) {\r\n            require(\r\n                inventories[inventoryId].products[productId].quantity >= quantityChange,\r\n                \"Insufficient product quantity\"\r\n            );\r\n            inventories[inventoryId].products[productId].quantity -= quantityChange;\r\n        } else {\r\n            revert(\"Invalid action\");\r\n        }\r\n\r\n        emit ProductUpdated(\r\n            inventoryId,\r\n            productId,\r\n            action,\r\n            quantityChange,\r\n            inventories[inventoryId].products[productId].quantity\r\n        );\r\n    }\r\n\r\n    // Delete a product from an inventory\r\n    function deleteProduct(uint inventoryId, uint productId) public onlyStaker {\r\n        require(inventories[inventoryId].id != 0, \"Inventory does not exist\");\r\n        require(inventories[inventoryId].products[productId].id != 0, \"Product does not exist\");\r\n\r\n        delete inventories[inventoryId].products[productId];\r\n        inventories[inventoryId].productCount--;\r\n\r\n        emit ProductDeleted(inventoryId, productId);\r\n    }\r\n\r\n    // Retrieve a product's details\r\n    function getProduct(uint inventoryId, uint productId)\r\n        public\r\n        view\r\n        returns (uint, string memory, uint, uint, string memory)\r\n    {\r\n        require(inventories[inventoryId].id != 0, \"Inventory does not exist\");\r\n        require(inventories[inventoryId].products[productId].id != 0, \"Product does not exist\");\r\n\r\n        Product memory product = inventories[inventoryId].products[productId];\r\n        return (product.id, product.name, product.quantity, product.expiryDate, product.manufacturer);\r\n    }\r\n}\r\n",
  "sourcePath": "C:\\Users\\User\\SimpleInventoryWithRAFT\\contracts\\MultiWarehouseInventory.sol",
  "compiler": {
    "name": "solc",
    "version": "0.8.24+commit.e11b9ed9.Emscripten.clang"
  },
  "schemaVersion": "3.4.16",
  "updatedAt": "2024-11-27T17:47:02.854Z",
  "networkType": "ethereum",
  "devdoc": {
    "kind": "dev",
    "methods": {},
    "version": 1
  },
  "userdoc": {
    "kind": "user",
    "methods": {},
    "version": 1
  }
}